{
  "contractName": "TEST",
  "abi": [
    {
      "inputs": [],
      "name": "INITIAL_SUPPLY",
      "outputs": [
        {
          "internalType": "uint256",
          "name": "",
          "type": "uint256"
        }
      ],
      "stateMutability": "view",
      "type": "function"
    },
    {
      "inputs": [],
      "name": "decimals",
      "outputs": [
        {
          "internalType": "uint256",
          "name": "",
          "type": "uint256"
        }
      ],
      "stateMutability": "view",
      "type": "function"
    },
    {
      "inputs": [],
      "name": "name",
      "outputs": [
        {
          "internalType": "string",
          "name": "",
          "type": "string"
        }
      ],
      "stateMutability": "view",
      "type": "function"
    },
    {
      "inputs": [],
      "name": "symbol",
      "outputs": [
        {
          "internalType": "string",
          "name": "",
          "type": "string"
        }
      ],
      "stateMutability": "view",
      "type": "function"
    }
  ],
  "bytecode": "0x608060405234801561001057600080fd5b5061024c806100206000396000f3fe608060405234801561001057600080fd5b506004361061004c5760003560e01c806306fdde03146100515780632ff2e9dc146100d4578063313ce567146100f257806395d89b4114610110575b600080fd5b610059610193565b6040518080602001828103825283818151815260200191508051906020019080838360005b8381101561009957808201518184015260208101905061007e565b50505050905090810190601f1680156100c65780820380516001836020036101000a031916815260200191505b509250505060405180910390f35b6100dc6101cc565b6040518082815260200191505060405180910390f35b6100fa6101d8565b6040518082815260200191505060405180910390f35b6101186101dd565b6040518080602001828103825283818151815260200191508051906020019080838360005b8381101561015857808201518184015260208101905061013d565b50505050905090810190601f1680156101855780820380516001836020036101000a031916815260200191505b509250505060405180910390f35b6040518060400160405280600a81526020017f5445535420746f6b656e0000000000000000000000000000000000000000000081525081565b6012600a0a6103e80281565b601281565b6040518060400160405280600481526020017f54455354000000000000000000000000000000000000000000000000000000008152508156fea26469706673582212202d6ee00bc17a9c87fcc9360dba1c67a28e51ff239594d7dfa4365bcf997b96c564736f6c634300060c0033",
  "immutableReferences": {},
  "source": "// SPDX-License-Identifier: MIT\r\npragma solidity >=0.4.22 <0.9.0;\r\n\r\ncontract TEST { // contract 이름은 TEST\r\n    string public constant name = \"TEST token\"; // 토큰 이름 TEST token\r\n    string public constant symbol = \"TEST\"; // 이름 TEST\r\n    uint public constant decimals = 18; // 소수점 18자리\r\n    uint public constant INITIAL_SUPPLY = 1000 * 10 ** decimals; // 초기 발행량 1000.000000000000000000\r\n    string constant test = \"You can not see this\"; // public 표시가 없는 경우 해당 문구 볼 수 없음\r\n}\r\n\r\n",
  "sourcePath": "C:/Users/multicampus/Desktop/PJT2/blockchain/smartcontract/contracts/Test.sol",
  "compiler": {
    "name": "solc",
    "version": "0.6.12+commit.27d51765.Emscripten.clang"
  },
  "schemaVersion": "3.3.4",
  "updatedAt": "2021-03-12T07:54:34.533Z",
  "devdoc": {
    "kind": "dev",
    "methods": {},
    "version": 1
  },
  "userdoc": {
    "kind": "user",
    "methods": {},
    "version": 1
  }
}